:060000000A128A11122809
:10000800FF00030883120313A2000408A3000A08D0
:10001800A4007E08A5000A128A118C280A128A11E7
:10002800BE280A128A11F0200A128A110130F00043
:100038000030F1000A128A1166210A128A11770823
:100048000A128A1144210A128A110A30F300003078
:10005800F4000A128A111C210A128A117A1C352806
:10006800362849287A1075080A128A1144210A127A
:100078008A110A30F3000030F4000A128A111C2198
:100088000A128A1183120313061183120313861CA2
:100098004E284F2865288618522853284F28760856
:1000A8000A128A1144210A128A110A30F300003018
:1000B800F4000A128A111C210A128A1183120313EE
:1000C8000611FA1C682869283228FA107B08790674
:1000D800031D6F2870287228061532287B087806B9
:1000E800031D77287828882877080A128A1144215E
:1000F8000A128A110A30F3000030F4000A128A1139
:100108001C210A128A11322832280A128A1112284E
:100118008B138C1E902891289B288C121A08FB00A0
:1001280003100030031801309A00FA14B2280B1D8E
:100138009E289F28A2280B11FA15B2288B1CA528E7
:10014800A628A9288B107A14B2280C1EAC28AD2832
:10015800B2287A15831603130C12B22883122508C5
:10016800FE0024088A002308840022088300FF0E6A
:100178007F0E0900FA01FB01A601A7010A128A11E4
:1001880079210A128A11F5000A128A117A210A12B3
:100198008A11F6000A128A117B210A128A11F700C5
:1001A8000A128A117C210A128A11F8000A128A118D
:1001B8007D210A128A11F9000A128A117E210A1277
:1001C8008A11A8000A128A117F210A128A11A9002D
:1001D80083010A128A1115284730831603138100F8
:1001E8000330860080308700831203138B178B1629
:1001F8000B160B17831603130C168C160430980075
:1002080080308312031398008C120C121930831655
:1002180003139900031000300318013083120313ED
:100228008600031000300318013087000615080007
:100238007408F201F2077308F101F1077208803AB5
:10024800F00080307002031D2B2901307102031861
:100258002E292F2930294329FF30F1070318F20AE4
:10026800FF30F2077208803AF00080307002031DF8
:100278003F29013071020318422943293029080017
:10028800F000831603130C1698167A1D4C294D2975
:100298005B29003083120313A6000030A700700802
:1002A800990083160313981C5A295B2955290310B2
:1002B80000300318013083120313990083160313C7
:1002C800981208007229FA1D6A296B297229FA11F5
:1002D800FF30F0070318F10AFF30F10771087004C6
:1002E800031D7729782967290800013405340F345C
:0802F8000A34023464340034BE
:02400E00793FF8
:00000001FF
